{
  "_format": "hh-sol-artifact-1",
  "contractName": "Splitwise",
  "sourceName": "contracts/mycontract.sol",
  "abi": [
    {
      "inputs": [
        {
          "internalType": "address",
          "name": "creditor",
          "type": "address"
        },
        {
          "internalType": "uint32",
          "name": "amount",
          "type": "uint32"
        }
      ],
      "name": "add_IOU",
      "outputs": [],
      "stateMutability": "nonpayable",
      "type": "function"
    },
    {
      "inputs": [
        {
          "internalType": "address",
          "name": "ower",
          "type": "address"
        }
      ],
      "name": "get_total_owed",
      "outputs": [
        {
          "internalType": "uint32",
          "name": "total",
          "type": "uint32"
        }
      ],
      "stateMutability": "view",
      "type": "function"
    },
    {
      "inputs": [
        {
          "internalType": "address",
          "name": "debtor",
          "type": "address"
        },
        {
          "internalType": "address",
          "name": "creditor",
          "type": "address"
        }
      ],
      "name": "lookup",
      "outputs": [
        {
          "internalType": "uint32",
          "name": "",
          "type": "uint32"
        }
      ],
      "stateMutability": "view",
      "type": "function"
    }
  ],
  "bytecode": "0x608060405234801561001057600080fd5b50611349806100206000396000f3fe608060405234801561001057600080fd5b50600436106100415760003560e01c80631b80944714610046578063713584a614610076578063d12099e4146100a6575b600080fd5b610060600480360381019061005b9190610f83565b6100c2565b60405161006d9190610fcf565b60405180910390f35b610090600480360381019061008b9190610fea565b610268565b60405161009d9190610fcf565b60405180910390f35b6100c060048036038101906100bb9190611056565b6102fe565b005b600080600160008473ffffffffffffffffffffffffffffffffffffffff1673ffffffffffffffffffffffffffffffffffffffff16815260200190815260200160002080548060200260200160405190810160405280929190818152602001828054801561018457602002820191906000526020600020905b8160009054906101000a900473ffffffffffffffffffffffffffffffffffffffff1673ffffffffffffffffffffffffffffffffffffffff168152602001906001019080831161013a575b505050505090506000915060005b8151811015610261576000808573ffffffffffffffffffffffffffffffffffffffff1673ffffffffffffffffffffffffffffffffffffffff16815260200190815260200160002060008383815181106101ee576101ed611096565b5b602002602001015173ffffffffffffffffffffffffffffffffffffffff1673ffffffffffffffffffffffffffffffffffffffff16815260200190815260200160002060009054906101000a900463ffffffff168361024c91906110f4565b9250808061025990611136565b915050610192565b5050919050565b60008060008473ffffffffffffffffffffffffffffffffffffffff1673ffffffffffffffffffffffffffffffffffffffff16815260200190815260200160002060008373ffffffffffffffffffffffffffffffffffffffff1673ffffffffffffffffffffffffffffffffffffffff16815260200190815260200160002060009054906101000a900463ffffffff16905092915050565b8173ffffffffffffffffffffffffffffffffffffffff163373ffffffffffffffffffffffffffffffffffffffff160361033657600080fd5b806000803373ffffffffffffffffffffffffffffffffffffffff1673ffffffffffffffffffffffffffffffffffffffff16815260200190815260200160002060008473ffffffffffffffffffffffffffffffffffffffff1673ffffffffffffffffffffffffffffffffffffffff16815260200190815260200160002060008282829054906101000a900463ffffffff166103d091906110f4565b92506101000a81548163ffffffff021916908363ffffffff1602179055508063ffffffff166000803373ffffffffffffffffffffffffffffffffffffffff1673ffffffffffffffffffffffffffffffffffffffff16815260200190815260200160002060008473ffffffffffffffffffffffffffffffffffffffff1673ffffffffffffffffffffffffffffffffffffffff16815260200190815260200160002060009054906101000a900463ffffffff1663ffffffff160361055057600160003373ffffffffffffffffffffffffffffffffffffffff1673ffffffffffffffffffffffffffffffffffffffff168152602001908152602001600020829080600181540180825580915050600190039060005260206000200160009091909190916101000a81548173ffffffffffffffffffffffffffffffffffffffff021916908373ffffffffffffffffffffffffffffffffffffffff1602179055506000806105393385610554565b91509150811561054d5761054c816105d3565b5b50505b5050565b6000606060009150600167ffffffffffffffff8111156105775761057661117e565b5b6040519080825280602002602001820160405280156105a55781602001602082028036833780820191505090505b5090506000806105b885876000866109f8565b9150915081156105ca57600193508092505b50509250929050565b60006105de82610d3a565b905060008251905060005b818160ff1610156109f257600084838360ff1661060691906111dc565b8151811061061757610616611096565b5b6020026020010151905060008584600185610632919061121a565b60ff1661063f91906111dc565b815181106106505761064f611096565b5b60200260200101519050846000808473ffffffffffffffffffffffffffffffffffffffff1673ffffffffffffffffffffffffffffffffffffffff16815260200190815260200160002060008373ffffffffffffffffffffffffffffffffffffffff1673ffffffffffffffffffffffffffffffffffffffff16815260200190815260200160002060008282829054906101000a900463ffffffff166106f4919061124f565b92506101000a81548163ffffffff021916908363ffffffff16021790555060008060008473ffffffffffffffffffffffffffffffffffffffff1673ffffffffffffffffffffffffffffffffffffffff16815260200190815260200160002060008373ffffffffffffffffffffffffffffffffffffffff1673ffffffffffffffffffffffffffffffffffffffff16815260200190815260200160002060009054906101000a900463ffffffff1663ffffffff16036109dd576000600160008473ffffffffffffffffffffffffffffffffffffffff1673ffffffffffffffffffffffffffffffffffffffff168152602001908152602001600020905060008180549050905060005b818110156109d9578373ffffffffffffffffffffffffffffffffffffffff1683828154811061082c5761082b611096565b5b9060005260206000200160009054906101000a900473ffffffffffffffffffffffffffffffffffffffff1673ffffffffffffffffffffffffffffffffffffffff16036109c657826001836108809190611287565b8154811061089157610890611096565b5b9060005260206000200160009054906101000a900473ffffffffffffffffffffffffffffffffffffffff168382815481106108cf576108ce611096565b5b9060005260206000200160006101000a81548173ffffffffffffffffffffffffffffffffffffffff021916908373ffffffffffffffffffffffffffffffffffffffff16021790555083836001846109269190611287565b8154811061093757610936611096565b5b9060005260206000200160006101000a81548173ffffffffffffffffffffffffffffffffffffffff021916908373ffffffffffffffffffffffffffffffffffffffff160217905550828054806109905761098f6112bb565b5b6001900381819060005260206000200160006101000a81549073ffffffffffffffffffffffffffffffffffffffff021916905590555b80806109d190611136565b9150506107fa565b5050505b505080806109ea906112ea565b9150506105e9565b50505050565b60006060600284610a09919061121a565b60ff1667ffffffffffffffff811115610a2557610a2461117e565b5b604051908082528060200260200182016040528015610a535781602001602082028036833780820191505090505b50905060005b83518160ff161015610ae657838160ff1681518110610a7b57610a7a611096565b5b6020026020010151828260ff1681518110610a9957610a98611096565b5b602002602001019073ffffffffffffffffffffffffffffffffffffffff16908173ffffffffffffffffffffffffffffffffffffffff16815250508080610ade906112ea565b915050610a59565b5085818560ff1681518110610afe57610afd611096565b5b602002602001019073ffffffffffffffffffffffffffffffffffffffff16908173ffffffffffffffffffffffffffffffffffffffff16815250506000600160008873ffffffffffffffffffffffffffffffffffffffff1673ffffffffffffffffffffffffffffffffffffffff168152602001908152602001600020805480602002602001604051908101604052809291908181526020018280548015610bf957602002820191906000526020600020905b8160009054906101000a900473ffffffffffffffffffffffffffffffffffffffff1673ffffffffffffffffffffffffffffffffffffffff1681526020019060010190808311610baf575b5050505050905060005b81518160ff161015610d2e578673ffffffffffffffffffffffffffffffffffffffff16828260ff1681518110610c3c57610c3b611096565b5b602002602001015173ffffffffffffffffffffffffffffffffffffffff1603610cc757600193508683600188610c72919061121a565b60ff1681518110610c8657610c85611096565b5b602002602001019073ffffffffffffffffffffffffffffffffffffffff16908173ffffffffffffffffffffffffffffffffffffffff16815250505050610d31565b600080610cff848460ff1681518110610ce357610ce2611096565b5b60200260200101518a60018b610cf9919061121a565b886109f8565b915091508115610d19576001955080945050505050610d31565b50508080610d26906112ea565b915050610c03565b50505b94509492505050565b600080825111610d4957600080fd5b60006380000000905060008351905060005b818160ff161015610f1557600085838360ff16610d7891906111dc565b81518110610d8957610d88611096565b5b6020026020010151905060008684600185610da4919061121a565b60ff16610db191906111dc565b81518110610dc257610dc1611096565b5b602002602001015190506000808373ffffffffffffffffffffffffffffffffffffffff1673ffffffffffffffffffffffffffffffffffffffff16815260200190815260200160002060008273ffffffffffffffffffffffffffffffffffffffff1673ffffffffffffffffffffffffffffffffffffffff16815260200190815260200160002060009054906101000a900463ffffffff1663ffffffff168563ffffffff161115610efc576000808373ffffffffffffffffffffffffffffffffffffffff1673ffffffffffffffffffffffffffffffffffffffff16815260200190815260200160002060008273ffffffffffffffffffffffffffffffffffffffff1673ffffffffffffffffffffffffffffffffffffffff16815260200190815260200160002060009054906101000a900463ffffffff16610efe565b845b945050508080610f0d906112ea565b915050610d5b565b508192505050919050565b600080fd5b600073ffffffffffffffffffffffffffffffffffffffff82169050919050565b6000610f5082610f25565b9050919050565b610f6081610f45565b8114610f6b57600080fd5b50565b600081359050610f7d81610f57565b92915050565b600060208284031215610f9957610f98610f20565b5b6000610fa784828501610f6e565b91505092915050565b600063ffffffff82169050919050565b610fc981610fb0565b82525050565b6000602082019050610fe46000830184610fc0565b92915050565b6000806040838503121561100157611000610f20565b5b600061100f85828601610f6e565b925050602061102085828601610f6e565b9150509250929050565b61103381610fb0565b811461103e57600080fd5b50565b6000813590506110508161102a565b92915050565b6000806040838503121561106d5761106c610f20565b5b600061107b85828601610f6e565b925050602061108c85828601611041565b9150509250929050565b7f4e487b7100000000000000000000000000000000000000000000000000000000600052603260045260246000fd5b7f4e487b7100000000000000000000000000000000000000000000000000000000600052601160045260246000fd5b60006110ff82610fb0565b915061110a83610fb0565b9250828201905063ffffffff811115611126576111256110c5565b5b92915050565b6000819050919050565b60006111418261112c565b91507fffffffffffffffffffffffffffffffffffffffffffffffffffffffffffffffff8203611173576111726110c5565b5b600182019050919050565b7f4e487b7100000000000000000000000000000000000000000000000000000000600052604160045260246000fd5b7f4e487b7100000000000000000000000000000000000000000000000000000000600052601260045260246000fd5b60006111e78261112c565b91506111f28361112c565b925082611202576112016111ad565b5b828206905092915050565b600060ff82169050919050565b60006112258261120d565b91506112308361120d565b9250828201905060ff811115611249576112486110c5565b5b92915050565b600061125a82610fb0565b915061126583610fb0565b9250828203905063ffffffff811115611281576112806110c5565b5b92915050565b60006112928261112c565b915061129d8361112c565b92508282039050818111156112b5576112b46110c5565b5b92915050565b7f4e487b7100000000000000000000000000000000000000000000000000000000600052603160045260246000fd5b60006112f58261120d565b915060ff8203611308576113076110c5565b5b60018201905091905056fea2646970667358221220bda0f0becf52f2bbda8d1634406d84453a7c02362de711274b29c73001f61f5264736f6c63430008110033",
  "linkReferences": {},
  "deployedLinkReferences": {}
}